:100000000C9462000C948A000C948A000C948A0070
:100010000C948A000C948A000C948A000C948A0038
:100020000C948A000C948A000C948A000C948A0028
:100030000C948A000C948A000C948A000C948A0018
:100040000C9482050C948A000C948A000C948A000B
:100050000C948A000C948A000C948A000C948A00F8
:100060000C948A000C948A000000000024002700F1
:100070002A0000000000250028002B0000000000DE
:1000800023002600290004040404040404040202DA
:100090000202020203030303030301020408102007
:1000A0004080010204081020010204081020000012
:1000B0000008000201000003040700000000000027
:1000C00000008A0911241FBECFEFD8E0DEBFCDBFEC
:1000D00012E0A0E0B1E0E8E5F4E102C005900D9285
:1000E000A035B107D9F722E0A0E5B2E001C01D922A
:1000F000AE3EB207E1F710E0C2E6D0E004C02197BF
:10010000FE010E94240AC136D107C9F70E94CC051E
:100110000C942A0A0C94000096E0899FD0011124C7
:10012000A959BD4F90967C936E935F9791E09196FD
:100130009C939197E091D402F091D5029091D302D3
:10014000992339F0309751F0811108C080918302D2
:100150000994309719F05C968C91FACF0895CF925C
:10016000DF92EF92FF920F931F9396E0899FF00129
:100170001124E959FD4F11A2278D30A121303105FD
:1001800051F178F02230310509F451C023303105A6
:1001900009F452C01F910F91FF90EF90DF90CF9024
:1001A00008956623B9F361E070E00E948C002FB7D8
:1001B000F8948091630290916402A0916502B091DD
:1001C00066022FBF8093BF029093C002A093C1022A
:1001D000B093C202DFCF9FB7F894C0906302D09073
:1001E0006402E0906502F09066029FBF0091BF023A
:1001F0001091C0022091C1023091C202C01AD10AEE
:10020000E20AF30A0091D1021091D20230E020E01C
:100210000C151D052E053F0550F462E070E01F919E
:100220000F91FF90EF90DF90CF900C948C006111B4
:10023000B1CF63E070E0F3CF70E060E0F0CFAF9259
:10024000BF92CF92DF92EF92FF920F931F93CF93C3
:10025000DF936C017B018B01040F151FEB015E0125
:10026000AE18BF08C017D10759F06991D601ED91BA
:10027000FC910190F081E02DC6010995892B79F759
:10028000C501DF91CF911F910F91FF90EF90DF900B
:10029000CF90BF90AF900895833081F028F48130E3
:1002A00099F08230A9F008958730A9F08830C9F01C
:1002B0008430B1F4809180008F7D03C080918000F4
:1002C0008F7780938000089584B58F7784BD0895DB
:1002D00084B58F7DFBCF8091B0008F778093B00085
:1002E00008958091B0008F7DF9CFCF93DF93282FB1
:1002F00030E0F901E255FF4F8491F901E656FF4FD6
:10030000D491F901EA57FF4FC491CC23A1F0811198
:100310000E944C01EC2FF0E0EE0FFF1FE458FF4F5E
:10032000A591B491EC91ED2381E090E009F480E097
:10033000DF91CF91089580E090E0FACF862F0C9462
:1003400075011F93CF93DF93282F30E0F901E25519
:10035000FF4F8491F901E656FF4FD491F901EA5716
:10036000FF4FC491CC23A9F0162F81110E944C019C
:10037000EC2FF0E0EE0FFF1FEE58FF4FA591B49168
:100380008FB7F894EC91111108C0D095DE23DC935F
:100390008FBFDF91CF911F910895DE2BF8CF862F6D
:1003A000642F0C94A101CF93DF9390E0FC01E656FB
:1003B000FF4F24918A579F4FFC0184918823C9F0F5
:1003C00090E0880F991FFC01E859FF4FA591B49167
:1003D000FC01EE58FF4FC591D49161110DC09FB73C
:1003E000F8948C91209582238C93888128232883EC
:1003F0009FBFDF91CF910895623051F49FB7F89479
:100400003C91822F809583238C93E8812E2BEFCF14
:100410008FB7F894EC912E2B2C938FBFEACF862FB9
:10042000642F0C94D3016F927F928F929F92AF9220
:10043000BF92CF92DF92EF92FF920F931F93CF93D1
:10044000DF9381E08093D3028FB7F89440916302E9
:100450005091640260916502709166028FBF809135
:10046000C3029091C402A091C502B091C602481B7C
:10047000590B6A0B7B0B8091CF029091D002B0E0B8
:10048000A0E084179507A607B70708F01DC1C0E0D4
:100490008091CD02C81760F4E091C902F091CA02C0
:1004A000EC0FF11D62E080810E94D301CF5FF0CF9D
:1004B000712C812C912C540183948091CE0278165A
:1004C00008F05FC0072D10E0E091CB02F091CC0264
:1004D000E00FF11F61E080810E94D301E091CB0227
:1004E000F091CC02E00FF11F60E080810E94A10139
:1004F000D501C401072C04C0880F991FAA1FBB1F78
:100500000A94D2F76C017C01E094F094612C809104
:10051000CD026816F8F4C62DD0E0E091C902F09142
:10052000CA02EC0FFD1F80810E9475012496CC0F3A
:10053000DD1FC959DD4F892B41F4888199818C29B0
:100540009D29998388836394E2CF888199818E2144
:100550009F21F7CFE091CB02F091CC02E00FF11F89
:1005600061E080810E94A1018091CB029091CC0238
:10057000080F191F60E0F80180810E94D301739475
:100580009CCFC7E6D2E0FE018FEF9FEF278D30A111
:10059000232B21F4148E968F858F11A2369622E09C
:1005A000E33AF20799F7F12C96E0D92E8091CD022B
:1005B000F81608F050C0E12C0F2D10E0000F111FAD
:1005C00001591D4F2091CE02E21608F042C0F801F9
:1005D000608171810E2C02C0769567950A94E2F7CE
:1005E000F29E900111242E0D311DE7E6F2E080E02D
:1005F000458D568D2417350709F46AC08F5F3696EE
:100600008A30B1F760FF23C0E7E6F2E090E080E0D7
:10061000448D411117C0E091C702F091C802E20F6A
:10062000F31F4081D89EF001D99EF00D1124E959A5
:10063000FD4F448F368F258F10A2178E61E00E94E8
:10064000AF0005C0019636968A30910509F7E3940C
:10065000B9CFF394ABCF80E099A19111892F269661
:10066000F2E0C33ADF07C1F79FB7F8944091630205
:100670005091640260916502709166029FBF409341
:10068000C3025093C4026093C5027093C6028823CC
:10069000D9F0809188028823B9F0809186029091E8
:1006A0008702019789F480918302DF91CF911F9196
:1006B0000F91FF90EF90DF90CF90BF90AF909F9001
:1006C0008F907F906F9008951092D30280E0EDCFCD
:1006D0006170B5CF3FB7F89480915102909152026A
:1006E000A0915302B091540226B5A89B05C02F3F9C
:1006F00019F00196A11DB11D3FBFBA2FA92F982F48
:100700008827BC01CD01620F711D811D911D42E042
:10071000660F771F881F991F4A95D1F708958F920A
:100720009F92AF92BF92CF92DF92EF92FF924B01D6
:100730005C010E946A036B017C010E946A036C19D0
:100740007D098E099F09683E734081059105A8F3D4
:1007500021E0821A9108A108B10888EEC80E83E052
:10076000D81EE11CF11C81149104A104B10429F7E5
:10077000FF90EF90DF90CF90BF90AF909F908F90C1
:100780000895089590E080E008958F929F92AF922F
:10079000BF920F931F93CF93DF93CDB7DEB7A1978F
:1007A0000FB6F894DEBF0FBECDBF19A2423008F4D9
:1007B0004AE08E010F5D1F4F842E912CB12CA12C8D
:1007C000A50194010E94020AE62FB901CA01EA308C
:1007D00044F5E05DD801EE938D01232B242B252BCE
:1007E00079F790E080E0109769F0FD01019000201A
:1007F000E9F73197AF014A1B5B0BBD0186ED92E033
:100800000E941F01A1960FB6F894DEBF0FBECDBFA8
:10081000DF91CF911F910F91BF90AF909F908F90DC
:100820000895E95CD7CFFC0101900020E9F73197EA
:10083000AF01481B590BBC0186ED92E00C941F01DF
:10084000CF93DF93EC0160E08E810E94A10161E013
:100850008E810E94A10160E08E810E94A1018BE83F
:1008600091E00197F1F7DF91CF910895CF92DF9258
:10087000EF92FF920F931F93CF93DF936C017C0154
:1008800087E0E80EF11CD0E0C0E0062F10E0B801D0
:100890000C2E02C0759567950A94E2F76170F70116
:1008A00081917F010E94A1012196C430D10579F781
:1008B000C601DF91CF911F910F91FF90EF90DF90D4
:1008C000CF900C942004CF92DF92EF92FF920F937F
:1008D0001F93CF93DF93EC01F62E642F8C810E943F
:1008E000A1018D818F3F19F060E00E94A1010F2DC1
:1008F00010E08F8584FF25C06E0187E0C80ED11CF3
:10090000F12CE12CB8010E2C02C0759567950A9464
:10091000E2F76170F60181916F010E94A101FFEF82
:10092000EF1AFF0A88E0E816F10461F7CE01DF91C3
:10093000CF911F910F91FF90EF90DF90CF900C948B
:100940002004B80184E0759567958A95E1F7CE019A
:100950000E9436046F2DCE01DF91CF911F910F9130
:10096000FF90EF90DF90CF900C94360440E0682F1A
:1009700086ED92E00C94630481E00E94B6048BE360
:100980009FE10197F1F70895CF93DF93613029F04C
:100990009091E50298609093E5026093E9021092CD
:1009A000EA0290E49093EB028093EC02805C8093E7
:1009B000ED0261E08091DA020E94D3018091DB02B6
:1009C0008F3F19F061E00E94D30161E08091DC0269
:1009D0000E94D301C6EDD2E09E01265D3240809197
:1009E000E50284FD0BC084E090E0219628173907CA
:1009F00044F461E08E810E94D301EECF88E090E064
:100A0000F4CF8BE39DE00197F1F760E08091DA028B
:100A10000E94A10160E08091DC020E94A10180910E
:100A2000DB028F3F19F060E00E94A1018091E50296
:100A300084FD34C063E086ED92E00E943604CBE48E
:100A4000D6E4CE010197F1F763E086ED92E00E94D3
:100A500036042197F1F763E086ED92E00E943604B8
:100A600083E592E00197F1F762E086ED92E00E9463
:100A700036048091E50280620E94B60484E080938F
:100A8000E6028CE00E94B6040E94BC0482E08093DF
:100A9000E70286E0DF91CF910C94B60480620E9459
:100AA000B6048BE496E40197F1F78091E502806249
:100AB0000E94B60483E592E00197F1F78091E50288
:100AC00080620E94B604D5CF9091E902691710F0B8
:100AD0006FEF690FE62FF0E0EA52FD4F9489890F1E
:100AE00080680C94B60441E00E94630481E090E0C9
:100AF000089541E0682F86ED92E00E94630481E052
:100B000090E008951F920F920FB60F9211242F9329
:100B10003F938F939F93AF93BF9380916302909184
:100B20006402A0916502B09166023091500223E008
:100B3000230F2D3758F50196A11DB11D20935002AA
:100B40008093630290936402A0936502B09366025F
:100B50008091510290915202A0915302B09154029F
:100B60000196A11DB11D8093510290935202A09352
:100B70005302B0935402BF91AF919F918F913F91D7
:100B80002F910F900FBE0F901F90189526E8230FFE
:100B90000296A11DB11DD2CF789484B5826084BD28
:100BA00084B5816084BD85B5826085BD85B5816071
:100BB00085BD80916E00816080936E0010928100EF
:100BC00080918100826080938100809181008160AA
:100BD000809381008091800081608093800080916B
:100BE000B10084608093B1008091B00081608093F7
:100BF000B00080917A00846080937A0080917A00BE
:100C0000826080937A0080917A00816080937A007C
:100C100080917A00806880937A001092C10061E030
:100C20008EE00E94D30161E08FE00E94D30161E079
:100C300080E10E94D30161E084E00E94D30160E082
:100C40008EE00E94A10160E08FE00E94A10160E0BF
:100C500080E10E94A10160E084E00E94A10164E0C3
:100C600084E10E94C4040E94BC0460E086E00E940B
:100C7000640584E391E00E94130461E081E00E9436
:100C800064058CE391E00E94130460ED77E080E05E
:100C900090E00E948F030E94BC0460E080E00E940C
:100CA000640580E591E00E94130490E0E92E90E055
:100CB000F92E0E941302182F882309F497C260E0CE
:100CC00080E00E94640580E591E00E941304C091D9
:100CD0006102D091620261E08C2F895F0E946405FD
:100CE0008AE20E94790580915F02909160020196EC
:100CF0009093600280935F022196D0936202C0932A
:100D0000610280915D0290915E02FC01E95AFD4F03
:100D10001083019690935E0280935D02809157024A
:100D2000833209F033C180915802833209F02EC119
:100D30000E94BC0460E081E00E94640585E691E0C9
:100D40000E94130461E082E00E94640587E791E05D
:100D50000E94130461E08BE00E9464058EE791E03D
:100D60000E94130480915902833209F075C20E94D7
:100D7000BC0460E081E00E94640584E891E00E9488
:100D800013040E9413021092600210925F021092EC
:100D900062021092610210925E0210925D02109245
:100DA00056021092550280915D0290915E02059765
:100DB00061F41092600210925F021092620210922F
:100DC000610210925E0210925D020E941302B82E20
:100DD000882349F3C0916102D091620261E08C2FB7
:100DE000895F0E9464058AE20E94790500915F0292
:100DF000109160020F5F1F4F1093600200935F021B
:100E00002196D0936202C0936102C0915D02D0919D
:100E10005E02FE01E95AFD4FB08262E08C2F0E9413
:100E200064058B2D0E94790563E081E00E946405D2
:100E30002196D0935E02C0935D02053011050CF43B
:100E4000B2CF90915702809118019813D6C190911A
:100E50005802809119019813D0C190915902809144
:100E60001A019813CAC190915A0280911B019813DC
:100E7000C4C190915B0280911C019813BEC10E9475
:100E8000BC0460E081E00E94640587E991E00E9473
:100E9000130410925E0210925D0210926002109292
:100EA0005F021092620210926102812C912C540117
:100EB0000E941302D82E8823D9F362E080E00E94BA
:100EC00064054AE0C501B4010E94C50300916102B6
:100ED0001091620261E087E0800F0E9464058AE25F
:100EE0000E947905C0915D02D0915E02FE01E85E2C
:100EF000FE4FD0822196D0935E02C0935D02C8015E
:100F00000196909362028093610263E0895F0E9480
:100F10006405C85EDE4F88810E9479058FEF881ACC
:100F2000980AA80AB80A85E088169104A104B104B9
:100F300009F0BECF0E94BC0460E081E00E9464051D
:100F40008AEA91E00E94130461E08FE00E94A1010F
:100F500068EE73E080E090E00E948F0360E08FE035
:100F60000E94A10110925E0210925D021092600236
:100F700010925F02109262021092610260E080E0C3
:100F80000E94640580E591E00E94130480915F0255
:100F90009091600205970CF429C10E94BC049091C5
:100FA00057028091180198137DC190915802809149
:100FB0001901981377C19091590280911A019813E1
:100FC00071C190915A0280911B0198136BC190914D
:100FD0005B0280911C01981365C10E94BC0460E013
:100FE00081E00E9464058AED91E00E94130461E0B3
:100FF00081E00E9464058EEE91E00E94130461E09E
:101000008EE00E94A10168EE73E080E090E00E9413
:101010008F0360E08EE00E94A1010E94BC04109248
:10102000600210925F0210926202109261021092AE
:101030005E0210925D02109256021092550260E01C
:1010400080E00E94640580E591E00E941304809195
:10105000550290915602029709F044C00E94BC04C8
:1010600060E086E00E94640588E092E00E9413043C
:1010700061E080E10E94A10168EE73E080E090E011
:101080000E948F0360E081E00E94640580E192E0AD
:101090000E94130461E084E00E94640583E292E010
:1010A0000E94130460ED77E080E090E00E948F03DF
:1010B00060E080E10E94A1010E94BC0460E080E049
:1010C0000E94640580E591E00E9413041092600282
:1010D00010925F02109262021092610210925E0200
:1010E00010925D028091550290915602039709F08B
:1010F0007DC00E94BC0460E081E00E94640580E144
:1011000092E00E94130461E084E00E94640580E3A1
:1011100092E00E94130461E080E10E94A10168EE68
:1011200073E080E090E00E948F0360E080E10E9425
:10113000A1010E94BC0460E083E00E9464058DE38D
:1011400092E00E9413048BE3882E912CA12CB12CE9
:1011500061E08FE00E94A10161E087E00E946405E8
:101160008CE492E00E94130461E089E00E9464052F
:101170004AE0C501B4010E94C50368EE73E080E057
:1011800090E00E948F030E94BC0460E083E00E9414
:1011900064058DE392E00E94130481E0881A9108AF
:1011A000A108B1088FEF88169806A806B80681F640
:1011B00060E08FE00E94A1010E94BC0460E080E03A
:1011C0000E94640580E591E00E941304109256028B
:1011D000109255021092600210925F021092620209
:1011E0001092610210925E0210925D02E114F1040D
:1011F00009F45FCD0E9400005CCD0E94BC0460E059
:1012000081E00E9464058BEB91E00E94130461E091
:1012100083E00E9464058DEC91E00E94130461E07C
:1012200080E10E94A10168EE73E080E090E00E94FE
:101230008F0360E080E10E94A1010E94BC04109233
:10124000600210925F02109262021092610210928C
:101250005E0210925D0292CE8A3209F097CE109211
:10126000600210925F02109262021092610210926C
:101270005E0210925D0210925602109255020E9478
:10128000BC0460E083E00E9464058DEC91E00E9464
:10129000130468EE73E080E090E00E948F030E94E8
:1012A000BC046CCE0E94BC0460E087E00E94640530
:1012B00082E092E00E94130461E081E00E946405F4
:1012C0008BEB91E00E94130461E080E10E94A10198
:1012D00068EE73E080E090E00E948F0360E080E1C0
:1012E0000E94A1010E94BC041092600210925F0251
:1012F000109262021092610210925E0210925D02E0
:1013000080915502909156020196909356028093D7
:10131000550295CE1092D9021092D8028CE291E03B
:101320009093D7028093D60289E08093DA028FEF00
:101330008093DB0288E08093DC028DE08093DD0205
:101340008CE08093DE028BE08093DF028AE0809362
:10135000E0021092E1021092E2021092E302109277
:10136000E4021092E50261E080E10E94C404109260
:10137000690210926D0210926C0210926E0282E26B
:1013800091E09093680280936702E3E8F2E01082B4
:10139000148213821582369682E0EF3BF807B9F784
:1013A00084E091E09093CA028093C90280E091E0CA
:1013B0009093CC028093CB0284E08093CD02809303
:1013C000CE0288E091E09093C8028093C7028AE041
:1013D00090E09093D0028093CF0284EF91E09093BD
:1013E000D2028093D1021092D5021092D4021092B0
:1013F000C3021092C4021092C5021092C60210924B
:10140000D3020895A1E21A2EAA1BBB1BFD010DC039
:10141000AA1FBB1FEE1FFF1FA217B307E407F507A4
:1014200020F0A21BB30BE40BF50B661F771F881F80
:10143000991F1A9469F760957095809590959B0116
:10144000AC01BD01CF010895EE0FFF1F0590F4918F
:08145000E02D0994F894FFCF90
:101458000706050400010203313233613435366270
:10146800373839632A302364313233343500000089
:1014780000000F02CF019E010000000073051F014C
:10148800C203C10357656C636F6D6500746F207488
:101498006865204469676974616C206C6F636B00D0
:1014A800506C61736520456E74657220706173734A
:1014B800776F7264004368616E67696E6720706158
:1014C8007373776F726400596573282329004E6F10
:1014D800282A2900456E746572206F6C642070613B
:1014E8007373776F726400456E746572206E6577EA
:1014F8002070617373776F72640050617373776FD4
:101508007264206368616E67656400506173737705
:101518006F72642069732077726F6E67006261630F
:101528006B20746F206D61696E0050617373776F03
:10153800726420697320636F7272656374004F7000
:10154800656E696E672074686520646F6F722E2EF1
:101558002E0045726F7272007761726E696E670055
:10156800596F7520456E7465722070617373776F5B
:1015780072640077726F6E6720322074696D65003F
:1015880077726F6E6720332074696D65006B6579BB
:10159800706164206973206C6F636B00303A0000DF
:00000001FF
